:100000000C94B3000C94C7380C94D4000C94D40016
:100010000C94D4000C94EB4D0C94BD4D0C94D40076
:100020000C94D4000C94D4000C94D4000C94D40000
:100030000C94D4000C94D4000C94D4000C940E5066
:100040000C94D4000C94D4000C94D4000C94D400E0
:100050000C94D4000C94D4000C94D4000C94D400D0
:100060000C94D4000C94D4000C94D4000C94D400C0
:100070000C94D4000C94D4000C94D4000C94D400B0
:100080000C94D4000C94D4000C94D4000C94D400A0
:100090000C94D4000C94D4000C94D4000C94D40090
:1000A0000C94D4000C94D4000C94D4000C94D40080
:1000B0000C94D4000C94D4000C94D4000C94D40070
:1000C0000C94D4000C94D4000C94D4000C94D40060
:1000D0000C94D4000C94D4000C94194B0C94754BD4
:1000E0000C94D40007634236B79BD8A71A396856D8
:1000F00018AEBAAB558C1D3CB7CC5763BD6DEDFD4A
:10010000753EF6177231BF000000803F0800000006
:10011000BE922449123EABAAAA2ABECDCCCC4C3EFC
:1001200000000080BEABAAAAAA3E00000000BF00EB
:100130000000803F0000000000084178D3BB4387E7
:10014000D1133D190E3CC3BD4282AD2B3E68EC82FB
:1001500076BED98FE1A93E4C80EFFFBE01C4FF7F80
:100160003F000000000011241FBECFEFD1E2DEBF30
:10017000CDBF00E00CBF12E0A0E0B2E0E0E4F0EBA5
:1001800000E00BBF02C007900D92A83AB107D9F763
:1001900020E1A8EAB2E001C01D92AF3BB207E1F74F
:1001A0000E94D6000C941E580C940000CF93DF934D
:1001B000CDB7DEB72E970FB6F894DEBF0FBECDBF1A
:1001C0009C878B877E876D870E94262381E00E9413
:1001D0003B2284E090E09093BF048093BE0488E0CB
:1001E00090E09093C1048093C0048EE68093000257
:1001F0001A821982CCC089819A81892B09F5809154
:10020000A8029091A902880F991F8F5F9D4FFC0152
:10021000808191819C01215031098091BE0490918F
:10022000BF04A091C004B091C104A901BC01CD01DB
:100230000E94FC30DC01CB018B839C83AD83BE83A9
:100240008091A8029091A902880F991F8F5F9D4FFE
:10025000FC01808191819C01215031098B819C811D
:10026000AD81BE81AC01BD01C9010E94A534809160
:10027000A8029091A902880F991F8F5F9D4FFC01E2
:100280008081918101970E9454299A838983898171
:100290009A81019761F48091A8029091A902019638
:1002A0009093A9028093A8021A82198270C08FEFDE
:1002B0009FEF9A8389838091A8029091A902880F69
:1002C000991F8F5F9D4FFC01808191819C0121507E
:1002D000310944E1429FC001439F900D1124825196
:1002E000964FFC018081918198878F838091A8022D
:1002F0009091A902880F991F8F5F9D4FFC0180810B
:1003000091819C012150310944E1429FC001439FEA
:10031000900D11248051964FFC0180819181988726
:100320008F832091BE043091BF048F819885A901ED
:10033000481B590BCA01019741F48091BE0490916A
:10034000BF0402979C838B8307C08091BE04909169
:10035000BF0402969C838B832091C0043091C1041A
:1003600089859A85F901E81BF90BCF01019741F4C2
:100370008091C0049091C10402979E838D8307C031
:100380008091C0049091C10402969E838D838091D8
:10039000A8029091A90240970CF42DCF81E090E043
:1003A0002E960FB6F894DEBF0FBECDBFDF91CF9172
:1003B0000895CF93DF93CDB7DEB7AE970FB6F8941D
:1003C000DEBF0FBECDBF6BA77CA78DA79EA780E029
:1003D00090E0A8ECB2E489839A83AB83BC8326E6E1
:1003E00036E646E655E469817A818B819C810E94DC
:1003F0008952DC01CB0189A39AA3ABA3BCA320E063
:1004000030E040E85FE369A17AA18BA19CA10E9442
:10041000255188232CF481E090E09EA38DA33FC05A
:1004200020E03FEF4FE757E469A17AA18BA19CA19F
:100430000E94845218164CF520E030E040E251E46E
:1004400069817A818B819C810E948952DC01CB0178
:10045000BC01CD010E94A351DC01CB019EA38DA361
:100460000FC080E791E098A78FA38FA198A501976F
:10047000F1F798A78FA38DA19EA101979EA38DA3AD
:100480008DA19EA1892B69F714C069A17AA18BA1C6
:100490009CA10E94A351DC01CB019EA38DA38DA141
:1004A0009EA19AA789A789A59AA50197F1F79AA76E
:1004B00089A781E00E943B2280E090E0A8ECB2E4B2
:1004C0008D839E83AF83B88726E636E646E655E4FD
:1004D0006D817E818F8198850E948952DC01CB01DC
:1004E0008F8B988FA98FBA8F20E030E040E85FE3D0
:1004F0006F89788D898D9A8D0E94255188232CF4DF
:1005000081E090E09C8F8B8F3FC020E03FEF4FE772
:1005100057E46F89788D898D9A8D0E9484521816C0
:100520004CF520E030E040E251E46D817E818F8126
:1005300098850E948952DC01CB01BC01CD010E944B
:10054000A351DC01CB019C8F8B8F0FC080E791E022
:100550009E8F8D8F8D8D9E8D0197F1F79E8F8D8F44
:100560008B8D9C8D01979C8F8B8F8B8D9C8D892B78
:1005700069F714C06F89788D898D9A8D0E94A35177
:10058000DC01CB019C8F8B8F8B8D9C8D98A38F8FE3
:100590008F8D98A10197F1F798A38F8F0E9449053D
:1005A00080E090E0A8ECB2E489879A87AB87BC87AB
:1005B00026E636E646E655E469857A858B859C8590
:1005C0000E948952DC01CB018D879E87AF87B88B53
:1005D00020E030E040E85FE36D857E858F85988977
:1005E0000E94255188232CF481E090E09A8B898B1E
:1005F0003FC020E03FEF4FE757E46D857E858F8554
:1006000098890E94845218164CF520E030E040E2B0
:1006100051E469857A858B859C850E948952DC012D
:10062000CB01BC01CD010E94A351DC01CB019A8B0F
:10063000898B0FC080E791E09C8B8B8B8B899C8989
:100640000197F1F79C8B8B8B89899A8901979A8BFB
:10065000898B89899A89892B69F714C06D857E8574
:100660008F8598890E94A351DC01CB019A8B898BDD
:1006700089899A899E8B8D8B8D899E890197F1F747
:100680009E8B8D8B81E00E943B220000AE960FB6C0
:10069000F894DEBF0FBECDBFDF91CF910895CF9309
:1006A000DF93CDB7DEB728970FB6F894DEBF0FBE45
:1006B000CDBF6D837E838F8398872D813E8180910E
:1006C000BE049091BF04A901481B590BCA019A832B
:1006D00089832F8138858091C0049091C104A9013C
:1006E000481B590BCA019C838B8389819A8199236A
:1006F000D4F480910002873709F46EC08091000223
:100700008E3629F48AE590E00E94292765C0809101
:100710000002853619F40E94A9285EC08AE590E09F
:100720000E94E92759C089819A8118161906D4F4C4
:1007300080910002853609F44FC080910002833712
:1007400029F48AE590E00E94292746C080910002A2
:10075000873719F40E94A9283FC08AE590E00E94DB
:10076000E9273AC08B819C819923CCF480910002C7
:100770008E3691F180910002873729F48AE590E066
:100780000E94292729C080910002833719F40E9412
:10079000A92822C08AE590E00E94E9271DC08B812C
:1007A0009C8118161906C4F4809100028337A1F0C9
:1007B00080910002853629F48AE590E00E9429277D
:1007C0000BC0809100028E3619F40E94A92804C043
:1007D0008AE590E00E94E927000028960FB6F89479
:1007E000DEBF0FBECDBFDF91CF910895CF93DF93D2
:1007F000CDB7DEB728970FB6F894DEBF0FBECDBFDA
:1008000083E00E940F3880931E0B82E00E940F3815
:100810008093A31081E00E940F388093220B809177
:100820001E0B893158F48091A310893138F48091DE
:10083000220B893118F481E090E022C119821A82DA
:100840001B821C821D821E821F8218868AE49AECFB
:10085000AFEEB0E489839A83AB83BC8369817A81EC
:100860008B819C810E94A351DC01CB018D839E83EF
:10087000AF83B88762E382E30E94DA4A0E94BD49EF
:100880001092D8091092D9091092DA091092DB0956
:1008900010929F101092A0101092A1101092A2100E
:1008A00024C083E00E940F3880931E0B82E00E94D8
:1008B0000F388093A31081E00E940F388093220BA1
:1008C00080911E0B893188F48091A310893168F4DE
:1008D0008091220B893148F40E94594A60E080E0FF
:1008E0000E94DA4A81E090E0CBC02091D809309193
:1008F000D9094091DA095091DB098D819E81AF8140
:10090000B885281739074A075B0758F620919F10CA
:100910003091A0104091A1105091A2108D819E8124
:10092000AF81B885281739074A075B0708F0B9CFA8
:1009300026C00E94D74983E00E940F3880931E0B87
:1009400082E00E940F388093A31081E00E940F384C
:100950008093220B80911E0B893188F48091A31023
:10096000893168F48091220B893148F40E94594AF8
:1009700060E080E00E94DA4A81E090E081C08D81F1
:100980009E81AF81B8859C01AD01220F331F441FAA
:10099000551F8091D8099091D909A091DA09B09199
:1009A000DB0982179307A407B50718F68D819E818E
:1009B000AF81B8859C01AD01220F331F441F551F25
:1009C00080919F109091A010A091A110B091A210C1
:1009D00082179307A407B50708F0ABCF26C00E9483
:1009E000BD4983E00E940F3880931E0B82E00E9475
:1009F0000F388093A31081E00E940F388093220B60
:100A000080911E0B893188F48091A310893168F49C
:100A10008091220B893148F40E94594A60E080E0BD
:100A20000E94DA4A81E090E02BC02091D8093091F1
:100A3000D9094091DA095091DB098D819E81AF81FE
:100A4000B885281739074A075B0748F620919F1099
:100A50003091A0104091A1105091A2108D819E81E3
:100A6000AF81B885281739074A075B0708F0B7CF69
:100A70000E94594A60E080E00E94DA4A80E090E0FB
:100A800028960FB6F894DEBF0FBECDBFDF91CF9191
:100A90000895EF92FF920F931F93CF93DF93CDB7FB
:100AA000DEB7C859D1400FB6F894DEBF0FBECDBF38
:100AB00066E986E90E94DA4A8CE390E00E940C4FD6
:100AC0008091BE049091BF04892B09F0D0C320917E
:100AD000C0043091C1048091BE049091BF04AC0168
:100AE0004F5F5F4FC901880F991F880F991F880FAB
:100AF000991F820F931F840F951F880F991F845E83
:100B00009B4FFC0180819181059611F00C9422226B
:100B100080910002833709F0DBC18AE590E00E94F2
:100B2000344F80E090E0A8ECB2E48F839887A987E7
:100B3000BA878E010F571F4F26E636E646E655E484
:100B40006F81788589859A850E948952DC01CB0165
:100B5000F80180839183A283B383CE018F579F4F87
:100B600020E030E040E85FE3FC0160817181828138
:100B700093810E94255188234CF4CE018B579F4FBF
:100B800021E030E0FC013183208369C0CE018F5722
:100B90009F4F20E03FEF4FE757E4FC0160817181F8
:100BA000828193810E94845218160CF046C020E086
:100BB00030E040E251E46F81788589859A850E9412
:100BC0008952DC01CB018E010B571F4FBC01CD01B7
:100BD0000E94A351DC01CB01F8019183808324C0E2
:100BE000CE0189579F4F20E731E0FC0131832083FC
:100BF000CE0189579F4FFC01808191810197F1F7C8
:100C00009E0129573F4FF90191838083CE018B5775
:100C10009F4F9E012B573F4FF90120813181215079
:100C20003109FC0131832083CE018B579F4FFC019A
:100C300080819181892BA1F62CC08E010B571F4F0B
:100C4000CE018F579F4FFC0160817181828193811A
:100C50000E94A351DC01CB01F80191838083CE0176
:100C600087579F4F9E012B573F4FF90120813181BC
:100C7000FC0131832083CE0187579F4FFC01808187
:100C800091810197F1F79E0127573F4FF901918319
:100C900080830091C0041091C1048091BE049091A2
:100CA000BF047C01FFEFEF1AFF0A0E94AF3C9C01DA
:100CB000C801880F991F880F991F880F991F800FEF
:100CC000911F8E0D9F1D880F991F845E9B4FFC0105
:100CD000318320832091C0043091C1048091BE04EF
:100CE0009091BF040196B9010E9442329E838D8388
:100CF0002091C0043091C1048091BE049091BF0442
:100D0000AC014F5F5F4FC901880F991F880F991F72
:100D1000880F991F820F931F840F951F880F991FAB
:100D2000845E9B4FFC01208131818D819E81A901D0
:100D3000BC0181E090E00E94BE258AE590E00E941F
:100D40004C4F9E012D583F4F80E090E0A8ECB2E45C
:100D5000F90180839183A283B3838E0109581F4FC9
:100D6000CE018D589F4F26E636E646E655E4FC0157
:100D700060817181828193810E948952DC01CB0163
:100D8000F80180839183A283B383CE0189589F4F5A
:100D900020E030E040E85FE3FC0160817181828106
:100DA00093810E94255188234CF4CE0185589F4F92
:100DB00021E030E0FC01318320836EC0CE018958F0
:100DC0009F4F20E03FEF4FE757E4FC0160817181C6
:100DD000828193810E94845218160CF04BC0CE0180
:100DE0008D589F4F20E030E040E251E4FC016081EB
:100DF0007181828193810E948952DC01CB018E0135
:100E000005581F4FBC01CD010E94A351DC01CB014D
:100E1000F8019183808324C0CE0183589F4F20E73F
:100E200031E0FC0131832083CE0183589F4FFC01C8
:100E3000808191810197F1F79E0123583F4FF9017D
:100E400091838083CE0185589F4F9E0125583F4F47
:100E5000F9012081318121503109FC013183208346
:100E6000CE0185589F4FFC0180819181892BA1F68D
:100E70000C9422228E0105581F4FCE0189589F4F96
:100E8000FC0160817181828193810E94A351DC0108
:100E9000CB01F80191838083CE0181589F4F9E0141
:100EA00025583F4FF90120813181FC013183208396
:100EB000CE0181589F4FFC01808191810197F1F70C
:100EC0009E0121583F4FF901918380830C94222287
:100ED0008AE590E00E944C4F80E090E0A8ECB2E4FC
:100EE0008F87988BA98BBA8B8E010B561F4F26E6E6
:100EF00036E646E655E46F85788989899A890E94A5
:100F00008952DC01CB01F80180839183A283B383F2
:100F1000CE018B569F4F20E030E040E85FE3FC01BC
:100F200060817181828193810E94255188234CF4D4
:100F3000CE0187569F4F21E030E0FC0131832083B2
:100F400069C0CE018B569F4F20E03FEF4FE757E43B
:100F5000FC0160817181828193810E948452181604
:100F60000CF046C020E030E040E251E46F85788923
:100F700089899A890E948952DC01CB018E0107562A
:100F80001F4FBC01CD010E94A351DC01CB01F80130
:100F90009183808324C0CE0185569F4F20E731E0A6
:100FA000FC0131832083CE0185569F4FFC01808157
:100FB00091810197F1F79E0125563F4FF9019183E9
:100FC0008083CE0187569F4F9E0127563F4FF901E0
:100FD0002081318121503109FC0131832083CE01F0
:100FE00087569F4FFC0180819181892BA1F62CC0EF
:100FF0008E0107561F4FCE018B569F4FFC0160811B
:101000007181828193810E94A351DC01CB01F8019F
:1010100091838083CE0183569F4F9E0127563F4F79
:10102000F90120813181FC0131832083CE01835677
:101030009F4FFC01808191810197F1F79E0123561A
:101040003F4FF901918380830091C0041091C10446
:101050008091BE049091BF047C01FFEFEF1AFF0A5C
:101060000E94AF3C9C01C801880F991F880F991FEF
:10107000880F991F800F911F8E0D9F1D880F991F3C
:10108000845E9B4FFC01318320832091C00430910A
:10109000C1048091BE049091BF040196B9010E94E1
:1010A00042329E838D832091C0043091C10480918F
:1010B000BE049091BF04AC014F5F5F4FC901880F20
:1010C000991F880F991F880F991F820F931F840FF4
:1010D000951F880F991F845E9B4FFC0120813181F1
:1010E0008D819E81A901BC0181E090E00E94BE2516
:1010F0008AE590E00E94344F80E090E0A8ECB2E4F2
:1011000089839A83AB83BC838E0105571F4F26E6E4
:1011100036E646E655E469817A818B819C810E949E
:101120008952DC01CB01F80180839183A283B383D0
:10113000CE0185579F4F20E030E040E85FE3FC019F
:1011400060817181828193810E94255188234CF4B2
:10115000CE0181579F4F21E030E0FC013183208395
:101160006AC0CE0185579F4F20E03FEF4FE757E41D
:10117000FC0160817181828193810E9484521816E2
:101180000CF047C020E030E040E251E469817A8110
:101190008B819C810E948952DC01CB018E01015719
:1011A0001F4FBC01CD010E94A351DC01CB01F8010E
:1011B0009183808324C0CE018F569F4F20E731E07A
:1011C000FC0131832083CE018F569F4FFC0180812B
:1011D00091810197F1F79E012F563F4FF9019183BD
:1011E0008083CE0181579F4F9E0121573F4FF901C8
:1011F0002081318121503109FC0131832083CE01CE
:1012000081579F4FFC0180819181892BA1F60C941D
:1012100022228E0101571F4FCE0185579F4FFC019F
:1012200060817181828193810E94A351DC01CB0195
:10123000F80191838083CE018D569F4F9E012157E7
:101240003F4FF90120813181FC0131832083CE01A0
:101250008D569F4FFC01808191810197F1F79E018E
:101260002D563F4FF901918380830C942222809167
:10127000BE049091BF04089709F0C4C32091C00434
:101280003091C1048091BE049091BF04AC014150E3
:101290005109C901880F991F880F991F880F991F3D
:1012A000820F931F840F951F880F991F845E9B4F99
:1012B000FC0180819181059611F00C94242280918B
:1012C00000028E3609F0CFC18AE590E00E94344FCB
:1012D00080E090E0A8ECB2E48F8B988FA98FBA8F52
:1012E0008E0107551F4F26E636E646E655E46F8920
:1012F000788D898D9A8D0E948952DC01CB01F8018D
:1013000080839183A283B383CE0187559F4F20E0D2
:1013100030E040E85FE3FC0160817181828193816C
:101320000E94255188234CF4CE0183559F4F21E024
:1013300030E0FC013183208369C0CE0187559F4F87
:1013400020E03FEF4FE757E4FC016081718182812B
:1013500093810E94845218160CF046C020E030E0C1
:1013600040E251E46F89788D898D9A8D0E9489526F
:10137000DC01CB018E0103551F4FBC01CD010E9442
:10138000A351DC01CB01F8019183808324C0CE01FD
:1013900081559F4F20E731E0FC0131832083CE014E
:1013A00081559F4FFC01808191810197F1F79E014A
:1013B00021553F4FF90191838083CE0183559F4F83
:1013C0009E0123553F4FF901208131812150310980
:1013D000FC0131832083CE0183559F4FFC01808126
:1013E0009181892BA1F62CC08E0103551F4FCE0190
:1013F00087559F4FFC0160817181828193810E949A
:10140000A351DC01CB01F80191838083CE018F547D
:101410009F4F9E0123553F4FF90120813181FC01EF
:1014200031832083CE018F549F4FFC0180819181B5
:101430000197F1F79E012F543F4FF901918380836B
:101440000091C0041091C1048091BE049091BF042A
:101450007C01F1E0EF1AF1080E94AF3C9C01C80149
:10146000880F991F880F991F880F991F800F911F50
:101470008E0D9F1D880F991F845E9B4FFC01318349
:1014800020832091C0043091C1048091BE049091CA
:10149000BF040197B9010E9442329E838D8320913F
:1014A000C0043091C1048091BE049091BF04AC018E
:1014B00041505109C901880F991F880F991F880F42
:1014C000991F820F931F840F951F880F991F845EA9
:1014D0009B4FFC01208131818D819E81A901BC013E
:1014E00081E090E00E94BE258AE590E00E944C4F8A
:1014F00080E090E0A8ECB2E48B879C87AD87BE8744
:101500008E0101561F4F26E636E646E655E46B850A
:101510007C858D859E850E948952DC01CB01F80176
:1015200080839183A283B383CE0181569F4F20E0B5
:1015300030E040E85FE3FC0160817181828193814A
:101540000E94255188234CF4CE018D559F4F21E0F8
:1015500030E0FC01318320836AC0CE0181569F4F69
:1015600020E03FEF4FE757E4FC0160817181828109
:1015700093810E94845218160CF047C020E030E09E
:1015800040E251E46B857C858D859E850E94895261
:10159000DC01CB018E010D551F4FBC01CD010E9416
:1015A000A351DC01CB01F8019183808324C0CE01DB
:1015B0008B559F4F20E731E0FC0131832083CE0122
:1015C0008B559F4FFC01808191810197F1F79E011E
:1015D0002B553F4FF90191838083CE018D559F4F4D
:1015E0009E012D553F4FF901208131812150310954
:1015F000FC0131832083CE018D559F4FFC018081FA
:101600009181892BA1F60C9424228E010D551F4F38
:10161000CE0181569F4FFC0160817181828193814F
:101620000E94A351DC01CB01F80191838083CE019C
:1016300089559F4F9E012D553F4FF90120813181E2
:10164000FC0131832083CE0189559F4FFC018081AD
:1016500091810197F1F79E0129553F4FF90191833F
:1016600080830C9424228AE590E00E944C4F80E015
:1016700090E0A8ECB2E48F8F98A3A9A3BAA38E013F
:1016800003541F4F26E636E646E655E46F8D78A1F3
:1016900089A19AA10E948952DC01CB01F8018083C3
:1016A0009183A283B383CE0183549F4F20E030E027
:1016B00040E85FE3FC0160817181828193810E9437
:1016C000255188234CF4CE018F539F4F21E030E009
:1016D000FC013183208369C0CE0183549F4F20E0F9
:1016E0003FEF4FE757E4FC01608171818281938174
:1016F0000E94845218160CF046C020E030E040E210
:1017000051E46F8D78A189A19AA10E948952DC01D0
:10171000CB018E010F531F4FBC01CD010E94A3517D
:10172000DC01CB01F8019183808324C0CE018D536D
:101730009F4F20E731E0FC0131832083CE018D53A0
:101740009F4FFC01808191810197F1F79E012D53FC
:101750003F4FF90191838083CE018F539F4F9E01AC
:101760002F533F4FF9012081318121503109FC0174
:1017700031832083CE018F539F4FFC018081918163
:10178000892BA1F62CC08E010F531F4FCE0183541D
:101790009F4FFC0160817181828193810E94A351DE
:1017A000DC01CB01F80191838083CE018B539F4FE5
:1017B0009E012F533F4FF90120813181FC0131837C
:1017C0002083CE018B539F4FFC0180819181019733
:1017D000F1F79E012B533F4FF901918380830091D4
:1017E000C0041091C1048091BE049091BF047C019B
:1017F000F1E0EF1AF1080E94AF3C9C01C801880F8C
:10180000991F880F991F880F991F800F911F8E0DA8
:101810009F1D880F991F845E9B4FFC01318320839D
:101820002091C0043091C1048091BE049091BF0406
:101830000197B9010E9442329E838D832091C0049A
:101840003091C1048091BE049091BF04AC0141501D
:101850005109C901880F991F880F991F880F991F77
:10186000820F931F840F951F880F991F845E9B4FD3
:10187000FC01208131818D819E81A901BC0181E023
:1018800090E00E94BE258AE590E00E94344F80E0FF
:1018900090E0A8ECB2E48B8B9C8BAD8BBE8B8E0161
:1018A0000D541F4F26E636E646E655E46B897C89E3
:1018B0008D899E890E948952DC01CB01F8018083C9
:1018C0009183A283B383CE018D549F4F20E030E0FB
:1018D00040E85FE3FC0160817181828193810E9415
:1018E000255188234CF4CE0189549F4F21E030E0EC
:1018F000FC01318320836AC0CE018D549F4F20E0CC
:101900003FEF4FE757E4FC01608171818281938151
:101910000E94845218160CF047C020E030E040E2EC
:1019200051E46B897C898D899E890E948952DC01F2
:10193000CB018E0109541F4FBC01CD010E94A35160
:10194000DC01CB01F8019183808324C0CE01875450
:101950009F4F20E731E0FC0131832083CE01875483
:101960009F4FFC01808191810197F1F79E012754DF
:101970003F4FF90191838083CE0189549F4F9E018F
:1019800029543F4FF9012081318121503109FC0157
:1019900031832083CE0189549F4FFC018081918146
:1019A000892BA1F60C9424228E0109541F4FCE01DD
:1019B0008D549F4FFC0160817181828193810E94CF
:1019C000A351DC01CB01F80191838083CE018554C2
:1019D0009F4F9E0129543F4FF90120813181FC0125
:1019E00031832083CE0185549F4FFC0180819181FA
:1019F0000197F1F79E0125543F4FF90191838083B0
:101A00000C9424228091C0049091C104892B09F088
:101A1000C6C38091C0049091C1049C012F5F3F4FC9
:101A20004091BE045091BF04C901880F991F880FCF
:101A3000991F880F991F820F931F840F951F880F7E
:101A4000991F845E9B4FFC0180819181059611F066
:101A50000C94262280910002873709F0D0C18AE5D4
:101A600090E00E94344F80E090E0A8ECB2E48FA3B5
:101A700098A7A9A7BAA78E010F521F4F26E636E6F0
:101A800046E655E46FA178A589A59AA50E948952DA
:101A9000DC01CB01F80180839183A283B383CE0163
:101AA0008F529F4F20E030E040E85FE3FC0160810F
:101AB0007181828193810E94255188234CF4CE014B
:101AC0008B529F4F21E030E0FC013183208369C0BD
:101AD000CE018F529F4F20E03FEF4FE757E4FC01CC
:101AE00060817181828193810E94845218160CF06A
:101AF00046C020E030E040E251E46FA178A589A51E
:101B00009AA50E948952DC01CB018E010B521F4F16
:101B1000BC01CD010E94A351DC01CB01F8019183EE
:101B2000808324C0CE0189529F4F20E731E0FC0121
:101B300031832083CE0189529F4FFC0180819181A6
:101B40000197F1F79E0129523F4FF901918380835C
:101B5000CE018B529F4F9E012B523F4FF9012081A6
:101B6000318121503109FC0131832083CE018B5218
:101B70009F4FFC0180819181892BA1F62CC08E01A1
:101B80000B521F4FCE018F529F4FFC01608171811C
:101B9000828193810E94A351DC01CB01F8019183E2
:101BA0008083CE0187529F4F9E012B523F4FF901F8
:101BB00020813181FC0131832083CE0187529F4FE8
:101BC000FC01808191810197F1F79E0127523F4FDF
:101BD000F901918380838091C0049091C1048C01AC
:101BE0000F5F1F4FE090BE04F090BF040E94AF3C17
:101BF0009C01C801880F991F880F991F880F991F92
:101C0000800F911F8E0D9F1D880F991F845E9B4F23
:101C1000FC01318320838091C0049091C1049C0118
:101C20002F5F3F4F8091BE049091BF04B9010E9485
:101C300042329E838D838091C0049091C1049C01A7
:101C40002F5F3F4F4091BE045091BF04C901880FE0
:101C5000991F880F991F880F991F820F931F840F58
:101C6000951F880F991F845E9B4FFC012081318155
:101C70008D819E81A901BC0181E090E00E94BE257A
:101C80008AE590E00E944C4F80E090E0A8ECB2E43E
:101C90008B8F9C8FAD8FBE8F8E0109531F4F26E611
:101CA00036E646E655E46B8D7C8D8D8D9E8D0E94CB
:101CB0008952DC01CB01F80180839183A283B38335
:101CC000CE0189539F4F20E030E040E85FE3FC0104
:101CD00060817181828193810E94255188234CF417
:101CE000CE0185539F4F21E030E0FC0131832083FA
:101CF0006AC0CE0189539F4F20E03FEF4FE757E482
:101D0000FC0160817181828193810E948452181646
:101D10000CF047C020E030E040E251E46B8D7C8D58
:101D20008D8D9E8D0E948952DC01CB018E01055361
:101D30001F4FBC01CD010E94A351DC01CB01F80172
:101D40009183808324C0CE0183539F4F20E731E0ED
:101D5000FC0131832083CE0183539F4FFC0180819E
:101D600091810197F1F79E0123533F4FF901918330
:101D70008083CE0185539F4F9E0125533F4FF9012C
:101D80002081318121503109FC0131832083CE0132
:101D900085539F4FFC0180819181892BA1F60C9482
:101DA00026228E0105531F4FCE0189539F4FFC0100
:101DB00060817181828193810E94A351DC01CB01FA
:101DC000F80191838083CE0181539F4F9E0125535B
:101DD0003F4FF90120813181FC0131832083CE0105
:101DE00081539F4FFC01808191810197F1F79E0102
:101DF00021533F4FF901918380830C9426228AE579
:101E000090E00E944C4F80E090E0A8ECB2E48FA7F5
:101E100098ABA9ABBAAB8E010B511F4F26E636E645
:101E200046E655E46FA578A989A99AA90E94895226
:101E3000DC01CB01F80180839183A283B383CE01BF
:101E40008B519F4F20E030E040E85FE3FC01608170
:101E50007181828193810E94255188234CF4CE01A7
:101E600087519F4F21E030E0FC013183208369C01E
:101E7000CE018B519F4F20E03FEF4FE757E4FC012D
:101E800060817181828193810E94845218160CF0C6
:101E900046C020E030E040E251E46FA578A989A96E
:101EA0009AA90E948952DC01CB018E0107511F4F74
:101EB000BC01CD010E94A351DC01CB01F80191834B
:101EC000808324C0CE0185519F4F20E731E0FC0183
:101ED00031832083CE0185519F4FFC018081918108
:101EE0000197F1F79E0125513F4FF90191838083BE
:101EF000CE0187519F4F9E0127513F4FF90120810D
:101F0000318121503109FC0131832083CE01875179
:101F10009F4FFC0180819181892BA1F62CC08E01FD
:101F200007511F4FCE018B519F4FFC016081718182
:101F3000828193810E94A351DC01CB01F80191833E
:101F40008083CE0183519F4F9E0127513F4FF9015E
:101F500020813181FC0131832083CE0183519F4F49
:101F6000FC01808191810197F1F79E0123513F4F40
:101F7000F901918380838091C0049091C1048C0108
:101F80000F5F1F4FE090BE04F090BF040E94AF3C73
:101F90009C01C801880F991F880F991F880F991FEE
:101FA000800F911F8E0D9F1D880F991F845E9B4F80
:101FB000FC01318320838091C0049091C1049C0175
:101FC0002F5F3F4F8091BE049091BF04B9010E94E2
:101FD00042329E838D838091C0049091C1049C0104
:101FE0002F5F3F4F4091BE045091BF04C901880F3D
:101FF000991F880F991F880F991F820F931F840FB5
:10200000951F880F991F845E9B4FFC0120813181B1
:102010008D819E81A901BC0181E090E00E94BE25D6
:102020008AE590E00E94344F80E090E0A8ECB2E4B2
:102030008BA39CA3ADA3BEA38E0105521F4F26E622
:1020400036E646E655E46BA17CA18DA19EA10E94D7
:102050008952DC01CB01F80180839183A283B38391
:10206000CE0185529F4F20E030E040E85FE3FC0165
:1020700060817181828193810E94255188234CF473
:10208000CE0181529F4F21E030E0FC01318320835B
:102090006AC0CE0185529F4F20E03FEF4FE757E4E3
:1020A000FC0160817181828193810E9484521816A3
:1020B0000CF047C020E030E040E251E46BA17CA18D
:1020C0008DA19EA10E948952DC01CB018E0101529B
:1020D0001F4FBC01CD010E94A351DC01CB01F801CF
:1020E0009183808324C0CE018F519F4F20E731E040
:1020F000FC0131832083CE018F519F4FFC018081F1
:1021000091810197F1F79E012F513F4FF901918382
:102110008083CE0181529F4F9E0121523F4FF90192
:102120002081318121503109FC0131832083CE018E
:1021300081529F4FFC0180819181892BA1F60C94E3
:1021400026228E0101521F4FCE0185529F4FFC0166
:1021500060817181828193810E94A351DC01CB0156
:10216000F80191838083CE018D519F4F9E012152B2
:102170003F4FF90120813181FC0131832083CE0161
:102180008D519F4FFC01808191810197F1F79E0154
:102190002D513F4FF901918380830C942622809129
:1021A000C0049091C104089709F0D0C38091C00485
:1021B0009091C1049C01215031094091BE0450917D
:1021C000BF04C901880F991F880F991F880F991F95
:1021D000820F931F840F951F880F991F845E9B4F5A
:1021E000FC0180819181059611F00C942822809148
:1021F0000002853609F0D0C18AE590E00E94344F94
:1022000080E090E0A8ECB2E48FAB98AFA9AFBAAF92
:102210008E0107501F4F26E636E646E655E46FA9C5
:1022200078AD89AD9AAD0E948952DC01CB01F801ED
:1022300080839183A283B383CE0187509F4F20E098
:1022400030E040E85FE3FC0160817181828193812D
:102250000E94255188234CF4CE0183509F4F21E0EA
:1022600030E0FC013183208369C0CE0187509F4F4D
:1022700020E03FEF4FE757E4FC01608171818281EC
:1022800093810E94845218160CF046C020E030E082
:1022900040E251E46FA978AD89AD9AAD0E948952B0
:1022A000DC01CB018E0103501F4FBC01CD010E9408
:1022B000A351DC01CB01F8019183808324C0CE01BE
:1022C00081509F4F20E731E0FC0131832083CE0114
:1022D00081509F4FFC01808191810197F1F79E0110
:1022E00021503F4FF90191838083CE0183509F4F4E
:1022F0009E0123503F4FF901208131812150310946
:10230000FC0131832083CE0183509F4FFC018081EB
:102310009181892BA1F62CC08E0103501F4FCE0155
:1023200087509F4FFC0160817181828193810E945F
:10233000A351DC01CB01F80191838083CE018F5F33
:102340009E4F9E0123503F4FF90120813181FC01B6
:1023500031832083CE018F5F9E4FFC01808191816C
:102360000197F1F79E012F5F3E4FF9019183808322
:102370008091C0049091C1048C0101501109E0903A
:10238000BE04F090BF040E94AF3C9C01C801880FBE
:10239000991F880F991F880F991F800F911F8E0D0D
:1023A0009F1D880F991F845E9B4FFC013183208302
:1023B0008091C0049091C1049C0121503109809109
:1023C000BE049091BF04B9010E9442329E838D8366
:1023D0008091C0049091C1049C0121503109409129
:1023E000BE045091BF04C901880F991F880F991F1F
:1023F000880F991F820F931F840F951F880F991FB5
:10240000845E9B4FFC01208131818D819E81A901D9
:10241000BC0181E090E00E94BE258AE590E00E9428
:102420004C4F80E090E0A8ECB2E48BA79CA7ADA74E
:10243000BEA78E0101511F4F26E636E646E655E45B
:102440006BA57CA58DA59EA50E948952DC01CB01C0
:10245000F80180839183A283B383CE0181519F4F82
:1024600020E030E040E85FE3FC016081718182811F
:1024700093810E94255188234CF4CE018D509F4FAB
:1024800021E030E0FC01318320836AC0CE0181511C
:102490009F4F20E03FEF4FE757E4FC0160817181DF
:1024A000828193810E94845218160CF047C020E06C
:1024B00030E040E251E46BA57CA58DA59EA50E946D
:1024C0008952DC01CB018E010D501F4FBC01CD01A3
:1024D0000E94A351DC01CB01F8019183808324C0C9
:1024E000CE018B509F4F20E731E0FC0131832083E8
:1024F000CE018B509F4FFC01808191810197F1F7B4
:102500009E012B503F4FF90191838083CE018D5066
:102510009F4F9E012D503F4FF90120813181215065
:102520003109FC0131832083CE018D509F4FFC0186
:1025300080819181892BA1F60C9428228E010D5067
:102540001F4FCE0181519F4FFC01608171818281BB
:1025500093810E94A351DC01CB01F8019183808318
:10256000CE0189509F4F9E012D503F4FF901208190
:102570003181FC0131832083CE0189509F4FFC01C2
:10258000808191810197F1F79E0129503F4FF90118
:10259000918380830C9428228AE590E00E944C4F1E
:1025A0009E01215C3F4F80E090E0A8ECB2E4F9018D
:1025B00080839183A283B3838E01035F1E4FCE017C
:1025C000CF9626E636E646E655E4FC016081718149
:1025D000828193810E948952DC01CB01F8018083C2
:1025E0009183A283B383CE01835F9E4F20E030E0CE
:1025F00040E85FE3FC0160817181828193810E94E8
:10260000255188234CF4CE018F5E9E4F21E030E0AF
:10261000FC01318320836CC0CE01835F9E4F20E09C
:102620003FEF4FE757E4FC01608171818281938124
:102630000E94845218160CF049C0CE01CF9620E0BB
:1026400030E040E251E4FC0160817181828193813C
:102650000E948952DC01CB018E010F5E1E4FBC012E
:10266000CD010E94A351DC01CB01F801918380834D
:1026700024C0CE018D5E9E4F20E731E0FC01318306
:102680002083CE018D5E9E4FFC0180819181019758
:10269000F1F79E012D5E3E4FF90191838083CE01BB
:1026A0008F5E9E4F9E012F5E3E4FF901208131814A
:1026B00021503109FC0131832083CE018F5E9E4F72
:1026C000FC0180819181892BA1F62CC08E010F5EC7
:1026D0001E4FCE01835F9E4FFC016081718182811C
:1026E00093810E94A351DC01CB01F8019183808387
:1026F000CE018B5E9E4F9E012F5E3E4FF9012081E1
:102700003181FC0131832083CE018B5E9E4FFC0121
:10271000808191810197F1F79E012B5E3E4FF90177
:10272000918380838091C0049091C1048C010150F9
:102730001109E090BE04F090BF040E94AF3C9C01E0
:10274000C801880F991F880F991F880F991F800F44
:10275000911F8E0D9F1D880F991F845E9B4FFC015A
:10276000318320838091C0049091C1049C01215049
:1027700031098091BE049091BF04B9010E94423298
:102780009E838D838091C0049091C1049C0121504F
:1027900031094091BE045091BF04C901880F991FAF
:1027A000880F991F880F991F820F931F840F951F01
:1027B000880F991F845E9B4FFC01208131818D81A0
:1027C0009E81A901BC0181E090E00E94BE258AE5BE
:1027D00090E00E94344F80E090E0A8ECB2E48BAB34
:1027E0009CABADABBEAB8E010D5F1E4F26E636E651
:1027F00046E655E46BA97CA98DA99EA90E94895241
:10280000DC01CB01F80180839183A283B383CE01E5
:102810008D5F9E4F20E030E040E85FE3FC01608187
:102820007181828193810E94255188234CF4CE01CD
:10283000895F9E4F21E030E0FC01318320836AC034
:10284000CE018D5F9E4F20E03FEF4FE757E4FC0144
:1028500060817181828193810E94845218160CF0EC
:1028600047C020E030E040E251E46BA97CA98DA98B
:102870009EA90E948952DC01CB018E01095F1E4F87
:10288000BC01CD010E94A351DC01CB01F801918371
:10289000808324C0CE01875F9E4F20E731E0FC019A
:1028A00031832083CE01875F9E4FFC01808191811F
:1028B0000197F1F79E01275F3E4FF90191838083D5
:1028C000CE01895F9E4F9E01295F3E4FF901208115
:1028D000318121503109FC0131832083CE01895F90
:1028E0009E4FFC0180819181892BA1F60C942822B6
:1028F0008E01095F1E4FCE018D5F9E4FFC016081EE
:102900007181828193810E94A351DC01CB01F80186
:1029100091838083CE01855F9E4F9E01295F3E4F4C
:10292000F90120813181FC0131832083CE01855F53
:102930009E4FFC01808191810197F1F79E01255FF7
:102940003E4FF901918380830C94282280910002EC
:10295000853631F080910002873711F00C94871C86
:102960008091C0049091C1049C0121503109409193
:10297000BE045091BF04C901880F991F880F991F89
:10298000880F991F820F931F840F951F880F991F1F
:10299000845E9B4FFC0180819181059609F0C4C340
:1029A00080910002873709F0DAC18AE590E00E9441
:1029B000344F9E01295A3F4F80E090E0A0E2B1E4FD
:1029C000F90180839183A283B3838E010F5D1E4F33
:1029D000CE01895A9F4F26E636E646E655E4FC01CD
:1029E00060817181828193810E948952DC01CB01D7
:1029F000F80180839183A283B383CE018F5D9E4FC4
:102A000020E030E040E85FE3FC0160817181828179
:102A100093810E94255188234CF4CE018B5D9E4FFB
:102A200021E030E0FC01318320836DC0CE018F5D59
:102A30009E4F20E03FEF4FE757E4FC01608171813A
:102A4000828193810E94845218160CF04AC0CE01F4
:102A5000895A9F4F20E030E040E251E4FC01608160
:102A60007181828193810E948952DC01CB018E01A8
:102A70000B5D1E4FBC01CD010E94A351DC01CB01B7
:102A8000F8019183808324C0CE01895D9E4F20E7A9
:102A900031E0FC0131832083CE01895D9E4FFC0132
:102AA000808191810197F1F79E01295D3E4FF901E7
:102AB00091838083CE018B5D9E4F9E012B5D3E4FA7
:102AC000F9012081318121503109FC0131832083BA
:102AD000CE018B5D9E4FFC0180819181892BA1F6F7
:102AE0002CC08E010B5D1E4FCE018F5D9E4FFC01F1
:102AF00060817181828193810E94A351DC01CB01AD
:102B0000F80191838083CE01875D9E4F9E012B5DEE
:102B10003E4FF90120813181FC0131832083CE01B8
:102B2000875D9E4FFC01808191810197F1F79E01A5
:102B3000275D3E4FF901918380838091C00490917D
:102B4000C1048C0101501109E090BE04F090BF0453
:102B50000E94AF3C9C01C801880F991F880F991FE4
:102B6000880F991F800F911F8E0D9F1D880F991F31
:102B7000845E9B4FFC01318320838091C00490913F
:102B8000C1049C01215031098091BE049091BF0481
:102B9000B9010E9442329E838D838091C00490913E
:102BA000C1049C01215031094091BE045091BF04E1
:102BB000C901880F991F880F991F880F991F820FCD
:102BC000931F840F951F880F991F845E9B4FFC01F4
:102BD000208131818D819E81A901BC0181E090E03D
:102BE0000E94BE258AE590E00E944C4F80E090E074
:102BF000A8ECB2E48BAF9CAFADAFBEAF8E01095E67
:102C00001E4F26E636E646E655E46BAD7CAD8DAD4F
:102C10009EAD0E948952DC01CB01F8018083918333
:102C2000A283B383CE01895E9E4F20E030E040E86E
:102C30005FE3FC0160817181828193810E94255153
:102C400088234CF4CE01855E9E4F21E030E0FC01EC
:102C50003183208369C0CE01895E9E4F20E03FEF23
:102C60004FE757E4FC0160817181828193810E946A
:102C7000845218160CF046C020E030E040E251E4E7
:102C80006BAD7CAD8DAD9EAD0E948952DC01CB0158
:102C90008E01055E1E4FBC01CD010E94A351DC01D7
:102CA000CB01F8019183808324C0CE01835E9E4FC7
:102CB00020E731E0FC0131832083CE01835E9E4F0B
:102CC000FC01808191810197F1F79E01235E3E4FC7
:102CD000F90191838083CE01855E9E4F9E01255E22
:102CE0003E4FF9012081318121503109FC013183AE
:102CF0002083CE01855E9E4FFC0180819181892BCE
:102D0000A1F612C28E01055E1E4FCE01895E9E4F56
:102D1000FC0160817181828193810E94A351DC0159
:102D2000CB01F80191838083CE01815E9E4F9E018D
:102D3000255E3E4FF90120813181FC0131832083E2
:102D4000CE01815E9E4FFC01808191810197F1F758
:102D50009E01215E3E4FF90191838083E5C18AE5A2
:102D600090E00E944C4F9E01215A3F4F80E090E03E
:102D7000A0E2B1E4F90180839183A283B3838E0141
:102D80000B5C1E4FCE01815A9F4F26E636E646E683
:102D900055E4FC0160817181828193810E94895296
:102DA000DC01CB01F80180839183A283B383CE0140
:102DB0008B5C9E4F20E030E040E85FE3FC016081E7
:102DC0007181828193810E94255188234CF4CE0128
:102DD000875C9E4F21E030E0FC01318320836DC091
:102DE000CE018B5C9E4F20E03FEF4FE757E4FC01A4
:102DF00060817181828193810E94845218160CF047
:102E00004AC0CE01815A9F4F20E030E040E251E4B9
:102E1000FC0160817181828193810E948952DC0171
:102E2000CB018E01075C1E4FBC01CD010E94A35156
:102E3000DC01CB01F8019183808324C0CE01855C45
:102E40009E4F20E731E0FC0131832083CE01855C79
:102E50009E4FFC01808191810197F1F79E01255CD5
:102E60003E4FF90191838083CE01875C9E4F9E0186
:102E7000275C3E4FF9012081318121503109FC014D
:102E800031832083CE01875C9E4FFC01808191813C
:102E9000892BA1F62CC08E01075C1E4FCE018B5CE6
:102EA0009E4FFC0160817181828193810E94A351B8
:102EB000DC01CB01F80191838083CE01835C9E4FBE
:102EC0009E01275C3E4FF90120813181FC01318355
:102ED0002083CE01835C9E4FFC018081918101970C
:102EE000F1F79E01235C3E4FF9019183808380912D
:102EF000C0049091C1048C0101501109E090BE04FE
:102F0000F090BF040E94AF3C9C01C801880F991F3C
:102F1000880F991F880F991F800F911F8E0D9F1D7D
:102F2000880F991F845E9B4FFC0131832083809121
:102F3000C0049091C1049C01215031098091BE04CC
:102F40009091BF04B9010E9442329E838D8380918B
:102F5000C0049091C1049C01215031094091BE04EC
:102F60005091BF04C901880F991F880F991F880FBE
:102F7000991F820F931F840F951F880F991F845EDE
:102F80009B4FFC01208131818D819E81A901BC0173
:102F900081E090E00E94BE258AE590E00E94344FD7
:102FA0009E012D5A3F4F80E090E0A8ECB2E4F90179
:102FB00080839183A283B3838E01055D1E4FCE0172
:102FC0008D5A9F4F26E636E646E655E4FC016081C1
:102FD0007181828193810E948952DC01CB01F801C9
:102FE00080839183A283B383CE01855D9E4F20E0D1
:102FF00030E040E85FE3FC01608171818281938170
:103000000E94255188234CF4CE01815D9E4F21E022
:1030100030E0FC01318320836DC0CE01855D9E4F81
:1030200020E03FEF4FE757E4FC016081718182812E
:1030300093810E94845218160CF04AC0CE018D5A1A
:103040009F4F20E030E040E251E4FC01608171815B
:10305000828193810E948952DC01CB018E01015D46
:103060001E4FBC01CD010E94A351DC01CB01F80130
:103070009183808324C0CE018F5C9E4F20E731E096
:10308000FC0131832083CE018F5C9E4FFC01808147
:1030900091810197F1F79E012F5C3E4FF9019183D9
:1030A0008083CE01815D9E4F9E01215D3E4FF901DF
:1030B0002081318121503109FC0131832083CE01EF
:1030C000815D9E4FFC0180819181892BA1F62CC0EE
:1030D0008E01015D1E4FCE01855D9E4FFC0160811A
:1030E0007181828193810E94A351DC01CB01F8019F
:1030F00091838083CE018D5C9E4F9E01215D3E4F6A
:10310000F90120813181FC0131832083CE018D5C66
:103110009E4FFC01808191810197F1F79E012D5C0A
:103120003E4FF901918380838091C0049091C10446
:103130009C012F5F3F4F4091BE045091BF04C901D5
:10314000880F991F880F991F880F991F820F931F4F
:10315000840F951F880F991F845E9B4FFC0180810F
:103160009181059611F00C942A22809100028737F4
:1031700009F0E7C18AE590E00E944C4F9E01295971
:103180003F4F80E090E0A0E2B1E4F90180839183B9
:10319000A283B3838E01075B1E4FCE0189599F4FD7
:1031A00026E636E646E655E4FC01608171818281BF
:1031B00093810E948952DC01CB01F80180839183C5
:1031C000A283B383CE01875B9E4F20E030E040E8CE
:1031D0005FE3FC0160817181828193810E942551AE
:1031E00088234CF4CE01835B9E4F21E030E0FC014C
:1031F000318320836DC0CE01875B9E4F20E03FEF7F
:103200004FE757E4FC0160817181828193810E94C4
:10321000845218160CF04AC0CE0189599F4F20E005
:1032200030E040E251E4FC01608171818281938150
:103230000E948952DC01CB018E01035B1E4FBC0151
:10324000CD010E94A351DC01CB01F8019183808361
:1032500024C0CE01815B9E4F20E731E0FC01318329
:103260002083CE01815B9E4FFC018081918101977B
:10327000F1F79E01215B3E4FF90191838083CE01DE
:10328000835B9E4F9E01235B3E4FF901208131817C
:1032900021503109FC0131832083CE01835B9E4F95
:1032A000FC0180819181892BA1F62CC08E01035BEA
:1032B0001E4FCE01875B9E4FFC0160817181828130
:1032C00093810E94A351DC01CB01F801918380839B
:1032D000CE018F5A9E4F9E01235B3E4FF901208104
:1032E0003181FC0131832083CE018F5A9E4FFC0136
:1032F000808191810197F1F79E012F5A3E4FF9018C
:10330000918380838091C0049091C1048C010F5FF0
:103310001F4FE090BE04F090BF040E94AF3C9C01A0
:10332000C801880F991F880F991F880F991F800F58
:10333000911F8E0D9F1D880F991F845E9B4FFC016E
:10334000318320838091C0049091C1049C012F5F40
:103350003F4F8091BE049091BF04B9010E94423258
:103360009E838D838091C0049091C1049C012F5F46
:103370003F4F4091BE045091BF04C901880F991F6F
:10338000880F991F880F991F820F931F840F951F15
:10339000880F991F845E9B4FFC01208131818D81B4
:1033A0009E81A901BC0181E090E00E94BE258AE5D2
:1033B00090E00E94344F9E01255A3F4F80E090E0FC
:1033C000A8ECB2E4F90180839183A283B3838E01D8
:1033D000015C1E4FCE01855A9F4F26E636E646E633
:1033E00055E4FC0160817181828193810E94895240
:1033F000DC01CB01F80180839183A283B383CE01EA
:10340000815C9E4F20E030E040E85FE3FC0160819A
:103410007181828193810E94255188234CF4CE01D1
:103420008D5B9E4F21E030E0FC01318320836EC034
:10343000CE01815C9E4F20E03FEF4FE757E4FC0157
:1034400060817181828193810E94845218160CF0F0
:103450004BC0CE01855A9F4F20E030E040E251E45E
:10346000FC0160817181828193810E948952DC011B
:10347000CB018E010D5B1E4FBC01CD010E94A351FB
:10348000DC01CB01F8019183808324C0CE018B5BEA
:103490009E4F20E731E0FC0131832083CE018B5B1E
:1034A0009E4FFC01808191810197F1F79E012B5B7A
:1034B0003E4FF90191838083CE018D5B9E4F9E012B
:1034C0002D5B3E4FF9012081318121503109FC01F2
:1034D00031832083CE018D5B9E4FFC0180819181E1
:1034E000892BA1F60C942A228E010D5B1E4FCE0172
:1034F000815C9E4FFC0160817181828193810E9479
:10350000A351DC01CB01F80191838083CE01895B5B
:103510009E4F9E012D5B3E4FF90120813181FC01C0
:1035200031832083CE01895B9E4FFC018081918194
:103530000197F1F79E01295B3E4FF901918380834A
:1035400089C78AE590E00E94344F9E0121593F4F80
:1035500080E090E0A0E2B1E4F90180839183A2834E
:10356000B3838E01035A1E4FCE0181599F4F26E629
:1035700036E646E655E4FC016081718182819381E3
:103580000E948952DC01CB01F80180839183A283E0
:10359000B383CE01835A9E4F20E030E040E85FE3E2
:1035A000FC0160817181828193810E942551882371
:1035B0004CF4CE018F599E4F21E030E0FC01318365
:1035C00020836DC0CE01835A9E4F20E03FEF4FE72E
:1035D00057E4FC0160817181828193810E94845251
:1035E00018160CF04AC0CE0181599F4F20E030E000
:1035F00040E251E4FC0160817181828193810E94EB
:103600008952DC01CB018E010F591E4FBC01CD0147
:103610000E94A351DC01CB01F8019183808324C077
:10362000CE018D599E4F20E731E0FC01318320838C
:10363000CE018D599E4FFC01808191810197F1F758
:103640009E012D593E4FF90191838083CE018F5900
:103650009E4F9E012F593E4FF9012081318121500B
:103660003109FC0131832083CE018F599E4FFC012B
:1036700080819181892BA1F62CC08E010F591E4F9C
:10368000CE01835A9E4FFC016081718182819381BA
:103690000E94A351DC01CB01F80191838083CE010C
:1036A0008B599E4F9E012F593E4FF9012081318148
:1036B000FC0131832083CE018B599E4FFC01808118
:1036C00091810197F1F79E012B593E4FF9019183AA
:1036D00080838091C0049091C1048C010F5F1F4FC3
:1036E000E090BE04F090BF040E94AF3C9C01C80172
:1036F000880F991F880F991F880F991F800F911F9E
:103700008E0D9F1D880F991F845E9B4FFC01318396
:1037100020838091C0049091C1049C012F5F3F4F92
:103720008091BE049091BF04B9010E9442329E83F1
:103730008D838091C0049091C1049C012F5F3F4F05
:103740004091BE045091BF04C901880F991F880F92
:10375000991F880F991F820F931F840F951F880F41
:10376000991F845E9B4FFC01208131818D819E8158
:10377000A901BC0181E090E00E94BE258AE590E0AD
:103780000E944C4F9E012D593F4F80E090E0A8ECE5
:10379000B2E4F90180839183A283B3838E010D5A31
:1037A0001E4FCE018D599F4F26E636E646E655E47C
:1037B000FC0160817181828193810E948952DC01C8
:1037C000CB01F80180839183A283B383CE018D5A0C
:1037D0009E4F20E030E040E85FE3FC0160817181B2
:1037E000828193810E94255188234CF4CE01895A0D
:1037F0009E4F21E030E0FC01318320836DC0CE017B
:103800008D5A9E4F20E03FEF4FE757E4FC01608167
:103810007181828193810E94845218160CF04AC0F3
:10382000CE018D599F4F20E030E040E251E4FC0191
:1038300060817181828193810E948952DC01CB0178
:103840008E01095A1E4FBC01CD010E94A351DC011B
:10385000CB01F8019183808324C0CE01875A9E4F0B
:1038600020E731E0FC0131832083CE01875A9E4F4F
:10387000FC01808191810197F1F79E01275A3E4F0B
:10388000F90191838083CE01895A9E4F9E01295A66
:103890003E4FF9012081318121503109FC013183F2
:1038A0002083CE01895A9E4FFC0180819181892B12
:1038B000A1F6D0C58E01095A1E4FCE018D5A9E4FDA
:1038C000FC0160817181828193810E94A351DC019E
:1038D000CB01F80191838083CE01855A9E4F9E01D2
:1038E000295A3E4FF90120813181FC013183208327
:1038F000CE01855A9E4FFC01808191810197F1F79D
:103900009E01255A3E4FF90191838083A3C5809182
:1039100000028E3629F080910002833709F09DC5A0
:103920002091C0043091C1048091BE049091BF04E5
:10393000AC0141505109C901880F991F880F991F87
:10394000880F991F820F931F840F951F880F991F4F
:10395000845E9B4FFC0180819181059609F00AC32A
:10396000809100028E3609F0E5C18AE590E00E9460
:10397000344F9E01295B3F4F80E090E0A0E2B1E42C
:10398000F90180839183A283B3838E010F581E4F68
:10399000CE01895B9F4F26E636E646E655E4FC01FC
:1039A00060817181828193810E948952DC01CB0107
:1039B000F80180839183A283B383CE018F589E4FF9
:1039C00020E030E040E85FE3FC01608171818281AA
:1039D00093810E94255188234CF4CE018B589E4F31
:1039E00021E030E0FC01318320836DC0CE018F588F
:1039F0009E4F20E03FEF4FE757E4FC01608171816B
:103A0000828193810E94845218160CF04AC0CE0124
:103A1000895B9F4F20E030E040E251E4FC0160818F
:103A20007181828193810E948952DC01CB018E01D8
:103A30000B581E4FBC01CD010E94A351DC01CB01EC
:103A4000F8019183808324C0CE0189589E4F20E7DE
:103A500031E0FC0131832083CE0189589E4FFC0167
:103A6000808191810197F1F79E0129583E4FF9011C
:103A700091838083CE018B589E4F9E012B583E4FE1
:103A8000F9012081318121503109FC0131832083EA
:103A9000CE018B589E4FFC0180819181892BA1F62C
:103AA0002CC08E010B581E4FCE018F589E4FFC012B
:103AB00060817181828193810E94A351DC01CB01DD
:103AC000F80191838083CE0187589E4F9E012B5829
:103AD0003E4FF90120813181FC0131832083CE01E9
:103AE00087589E4FFC01808191810197F1F79E01DB
:103AF00027583E4FF901918380830091C0041091B3
:103B0000C1048091BE049091BF047C01F1E0EF1AE2
:103B1000F1080E94AF3C9C01C801880F991F880FD3
:103B2000991F880F991F800F911F8E0D9F1D880F61
:103B3000991F845E9B4FFC01318320832091C00438
:103B40003091C1048091BE049091BF040197B901E6
:103B50000E9442329E838D832091C0043091C10423
:103B60008091BE049091BF04AC0141505109C9013C
:103B7000880F991F880F991F880F991F820F931F15
:103B8000840F951F880F991F845E9B4FFC01208135
:103B900031818D819E81A901BC0181E090E00E946C
:103BA000BE258AE590E00E944C4F9E0125593F4F6B
:103BB00080E090E0A8ECB2E4F90180839183A283D5
:103BC000B3838E0109591E4FCE0185599F4F26E6BA
:103BD00036E646E655E4FC0160817181828193817D
:103BE0000E948952DC01CB01F80180839183A2837A
:103BF000B383CE0189599E4F20E030E040E85FE377
:103C0000FC0160817181828193810E94255188230A
:103C10004CF4CE0185599E4F21E030E0FC01318308
:103C200020836DC0CE0189599E4F20E03FEF4FE7C2
:103C300057E4FC0160817181828193810E948452EA
:103C400018160CF04AC0CE0185599F4F20E030E095
:103C500040E251E4FC0160817181828193810E9484
:103C60008952DC01CB018E0105591E4FBC01CD01EB
:103C70000E94A351DC01CB01F8019183808324C011
:103C8000CE0183599E4F20E731E0FC013183208330
:103C9000CE0183599E4FFC01808191810197F1F7FC
:103CA0009E0123593E4FF90191838083CE018559AE
:103CB0009E4F9E0125593E4FF901208131812150AF
:103CC0003109FC0131832083CE0185599E4FFC01CF
:103CD00080819181892BA1F64DC18E0105591E4F1E
:103CE000CE0189599E4FFC0160817181828193814F
:103CF0000E94A351DC01CB01F80191838083CE01A6
:103D000081599E4F9E0125593E4FF90120813181F5
:103D1000FC0131832083CE0181599E4FFC018081BB
:103D200091810197F1F79E0121593E4FF90191834D
:103D3000808320C18AE590E00E944C4F9E012D5B5C
:103D40003F4F80E090E0A0E2B1E4F90180839183ED
:103D5000A283B3838E0105581E4FCE018D5B9F4F0A
:103D600026E636E646E655E4FC01608171818281F3
:103D700093810E948952DC01CB01F80180839183F9
:103D8000A283B383CE0185589E4F20E030E040E807
:103D90005FE3FC0160817181828193810E942551E2
:103DA00088234CF4CE0181589E4F21E030E0FC0185
:103DB000318320836DC0CE0185589E4F20E03FEFB8
:103DC0004FE757E4FC0160817181828193810E94F9
:103DD000845218160CF04AC0CE018D5B9F4F20E034
:103DE00030E040E251E4FC01608171818281938185
:103DF0000E948952DC01CB018E0101581E4FBC018B
:103E0000CD010E94A351DC01CB01F8019183808395
:103E100024C0CE018F579E4F20E731E0FC01318353
:103E20002083CE018F579E4FFC01808191810197A5
:103E3000F1F79E012F573E4FF90191838083CE0108
:103E400081589E4F9E0121583E4FF90120813181BA
:103E500021503109FC0131832083CE0181589E4FCE
:103E6000FC0180819181892BA1F62CC08E01015823
:103E70001E4FCE0185589E4FFC0160817181828169
:103E800093810E94A351DC01CB01F80191838083CF
:103E9000CE018D579E4F9E0121583E4FF901208142
:103EA0003181FC0131832083CE018D579E4FFC016F
:103EB000808191810197F1F79E012D573E4FF901C5
:103EC000918380830091C0041091C1048091BE044D
:103ED0009091BF047C01F1E0EF1AF1080E94AF3C21
:103EE0009C01C801880F991F880F991F880F991F7F
:103EF000800F911F8E0D9F1D880F991F845E9B4F11
:103F0000FC01318320832091C0043091C104809151
:103F1000BE049091BF040197B9010E9442329E8372
:103F20008D832091C0043091C1048091BE04909192
:103F3000BF04AC0141505109C901880F991F880F76
:103F4000991F880F991F820F931F840F951F880F49
:103F5000991F845E9B4FFC01208131818D819E8160
:103F6000A901BC0181E090E00E94BE258AE590E0B5
:103F70000E94344F2091C0043091C1048091BE044E
:103F80009091BF04AC014F5F5F4FC901880F991F2B
:103F9000880F991F880F991F820F931F840F951FF9
:103FA000880F991F845E9B4FFC018081918105964B
:103FB00009F052C2809100028E3609F021C18AE5D3
:103FC00090E00E944C4F9E01255B3F4F80E090E0C7
:103FD000A0E2B1E4F90180839183A283B3838E01CF
:103FE0000B571E4FCE01855B9F4F26E636E646E611
:103FF00055E4FC0160817181828193810E94895224
:10400000DC01CB01F80180839183A283B383CE01CD
:104010008B579E4F20E030E040E85FE3FC01608179
:104020007181828193810E94255188234CF4CE01B5
:1040300087579E4F21E030E0FC01318320836DC023
:10404000CE018B579E4F20E03FEF4FE757E4FC0136
:1040500060817181828193810E94845218160CF0D4
:104060004AC0CE01855B9F4F20E030E040E251E442
:10407000FC0160817181828193810E948952DC01FF
:10408000CB018E0107571E4FBC01CD010E94A351E9
:10409000DC01CB01F8019183808324C0CE018557D8
:1040A0009E4F20E731E0FC0131832083CE0185570C
:1040B0009E4FFC01808191810197F1F79E01255768
:1040C0003E4FF90191838083CE0187579E4F9E0119
:1040D00027573E4FF9012081318121503109FC01E0
:1040E00031832083CE0187579E4FFC0180819181CF
:1040F000892BA1F62CC08E0107571E4FCE018B577E
:104100009E4FFC0160817181828193810E94A35145
:10411000DC01CB01F80191838083CE0183579E4F50
:104120009E0127573E4FF90120813181FC013183E7
:104130002083CE0183579E4FFC018081918101979E
:10414000F1F79E0123573E4FF9019183808300913F
:10415000C0041091C1048091BE049091BF047C0101
:10416000FFEFEF1AFF0A0E94AF3C9C01C801880FC5
:10417000991F880F991F880F991F800F911F8E0D0F
:104180009F1D880F991F845E9B4FFC013183208304
:104190002091C0043091C1048091BE049091BF046D
:1041A0000196B9010E9442329E838D832091C00402
:1041B0003091C1048091BE049091BF04AC014F5F67
:1041C0005F4FC901880F991F880F991F880F991F8A
:1041D000820F931F840F951F880F991F845E9B4F3A
:1041E000FC01208131818D819E81A901BC0181E08A
:1041F00090E00E94BE258AE590E00E94344F2CC1D9
:104200008AE590E00E94344F9E01215B3F4F80E0A1
:1042100090E0A0E2B1E4F90180839183A283B383AB
:104220008E0101571E4FCE01815B9F4F26E636E679
:1042300046E655E4FC0160817181828193810E9490
:104240008952DC01CB01F80180839183A283B3837F
:10425000CE0181579E4F20E030E040E85FE3FC0153
:1042600060817181828193810E94255188234CF461
:10427000CE018D569E4F21E030E0FC01318320833A
:104280006DC0CE0181579E4F20E03FEF4FE757E4CE
:10429000FC0160817181828193810E948452181691
:1042A0000CF04AC0CE01815B9F4F20E030E040E23D
:1042B00051E4FC0160817181828193810E94895265
:1042C000DC01CB018E010D561E4FBC01CD010E94B9
:1042D000A351DC01CB01F8019183808324C0CE017E
:1042E0008B569E4F20E731E0FC0131832083CE01C5
:1042F0008B569E4FFC01808191810197F1F79E01C1
:104300002B563E4FF90191838083CE018D569E4FEF
:104310009E012D563E4FF9012081318121503109F6
:10432000FC0131832083CE018D569E4FFC0180819C
:104330009181892BA1F62CC08E010D561E4FCE0106
:1043400081579E4FFC0160817181828193810E941F
:10435000A351DC01CB01F80191838083CE01895602
:104360009E4F9E012D563E4FF90120813181FC0167
:1043700031832083CE0189569E4FFC01808191813B
:104380000197F1F79E0129563E4FF90191838083F1
:104390000091C0041091C1048091BE049091BF04AB
:1043A0007C01FFEFEF1AFF0A0E94AF3C9C01C8019D
:1043B000880F991F880F991F880F991F800F911FD1
:1043C0008E0D9F1D880F991F845E9B4FFC013183CA
:1043D00020832091C0043091C1048091BE0490914B
:1043E000BF040196B9010E9442329E838D832091C1
:1043F000C0043091C1048091BE049091BF04AC010F
:104400004F5F5F4FC901880F991F880F991F880F51
:10441000991F820F931F840F951F880F991F845E29
:104420009B4FFC01208131818D819E81A901BC01BE
:1044300081E090E00E94BE258AE590E00E944C4F0A
:1044400000000AC0000009C0000007C0000005C04D
:10445000000003C0000001C00000C856DE4F0FB6C8
:10446000F894DEBF0FBECDBFDF91CF911F910F91AA
:10447000FF90EF900895CF93DF9300D01F92CDB7B8
:10448000DEB78C8319821B821A8288C00E948949F8
:1044900083E00E940F3880931E0B82E00E940F3849
:1044A0008093A31081E00E940F388093220B8091AB
:1044B000A3108A3120F180911E0B8A3120F4809163
:1044C000220B8A31E0F00E94594A60E080E00E94AD
:1044D000DA4A0E944B4645E252E062E081E00E94E7
:1044E000D84789818F5F89838981882F90E022E076
:1044F00030E0AC0165E082E00E94024842C0809159
:10450000A3108A3148F01092AD021092AC0268EC10
:1045100088EC0E94DA4ABCCF80911E0B8A3158F099
:1045200081E090E09093AD028093AC0268EC82E36E
:104530000E94DA4AADCF8091220B8A3158F082E096
:1045400090E09093AD028093AC0262E388EC0E940D
:10455000DA4A9ECF8091AC029091AD02019729F486
:1045600068EC82E30E94DA4A93CF8091AC0290918A
:10457000AD02029709F08CCF62E388EC0E94DA4A20
:1045800087CF68EC88EC0E94DA4A8CE390E00E94C6
:104590000C4F8A819B8101969B838A838C81282F73
:1045A00030E08A819B81821793070CF46FCF809152
:1045B00000028E3681F42091C0043091C1048C81B8
:1045C000882F90E0A901481B590BCA019093C104A0
:1045D0008093C00433C080910002873781F420911A
:1045E000BE043091BF048C81882F90E0A901481B44
:1045F000590BCA019093BF048093BE041FC08091E1
:104600000002833771F42091C0043091C1048C8181
:10461000882F90E0820F931F9093C1048093C00471
:104620000DC02091BE043091BF048C81882F90E092
:10463000820F931F9093BF048093BE0400000F90DD
:104640000F900F900F90DF91CF910895CF93DF934C
:10465000CDB7DEB760970FB6F894DEBF0FBECDBF03
:104660001A8219820E94F24A9A83898389819A81E7
:104670000197C1F70E9481379A83898389819A8142
:104680000197C1F70E9488501092A5091092A409C1
:104690001092200B10921F0B10929F101092A010DE
:1046A0001092A1101092A2101092D8091092D9095C
:1046B0001092DA091092DB090E94F5380E946B39DA
:1046C0000E947E4D0E94984D0E94FD2E0E94162E43
:1046D0000E94872F0E948A2D0E942B380E94453805
:1046E0000E942C3E0E9474450E944B4642E352E0D9
:1046F00065E081E00E94D8474AE352E064E082E04E
:104700000E94D84780E090E0AAEFB3E48B839C83BB
:10471000AD83BE8326E636E646E655E46B817C81B2
:104720008D819E810E948952DC01CB018F83988705
:10473000A987BA8720E030E040E85FE36F817885A1
:1047400089859A850E94255188232CF481E090E088
:104750009C878B873FC020E03FEF4FE757E46F8196
:10476000788589859A850E94845218164CF520E038
:1047700030E040E251E46B817C818D819E810E941A
:104780008952DC01CB01BC01CD010E94A351DC01A7
:10479000CB019C878B870FC080E791E09E878D8738
:1047A0008D859E850197F1F79E878D878B859C85EA
:1047B00001979C878B878B859C85892B69F714C013
:1047C0006F81788589859A850E94A351DC01CB0190
:1047D0009C878B878B859C85988B8F878F85988905
:1047E0000197F1F7988B8F8788E090E09093240BE6
:1047F0008093230B84E090E09093260B8093250B0D
:10480000000060960FB6F894DEBF0FBECDBFDF91FB
:10481000CF910895CF93DF93CDB7DEB7AA970FB6A8
:10482000F894DEBF0FBECDBF83E00E940F388093A7
:104830001E0B0E944B4646E452E062E081E00E947B
:10484000D84780911E0B882F90E023E030E0AC0128
:1048500065E082E00E94024880E090E0AAE7B4E4CC
:1048600089839A83AB83BC8326E636E646E655E425
:1048700069817A818B819C810E948952DC01CB0104
:1048800089A39AA3ABA3BCA320E030E040E85FE398
:1048900069A17AA18BA19CA10E94255188232CF4A7
:1048A00081E090E09EA38DA33FC020E03FEF4FE763
:1048B00057E469A17AA18BA19CA10E948452181689
:1048C0004CF520E030E040E251E469817A818B814F
:1048D0009C810E948952DC01CB01BC01CD010E9468
:1048E000A351DC01CB019EA38DA30FC080E791E013
:1048F00098A78FA38FA198A50197F1F798A78FA3E9
:104900008DA19EA101979EA38DA38DA19EA1892B10
:1049100069F714C069A17AA18BA19CA10E94A3513F
:10492000DC01CB019EA38DA38DA19EA19AA789A78F
:1049300089A59AA50197F1F79AA789A782E00E9415
:104940000F388093A3100E944B4642E552E062E08C
:1049500081E00E94D8478091A310882F90E023E047
:1049600030E0AC0165E082E00E94024880E090E027
:10497000AAE7B4E48D839E83AF83B88726E636E644
:1049800046E655E46D817E818F8198850E9489522B
:10499000DC01CB018F8B988FA98FBA8F20E030E09C
:1049A00040E85FE36F89788D898D9A8D0E9425514B
:1049B00088232CF481E090E09C8F8B8F3FC020E017
:1049C0003FEF4FE757E46F89788D898D9A8D0E946C
:1049D000845218164CF520E030E040E251E46D813D
:1049E0007E818F8198850E948952DC01CB01BC01B8
:1049F000CD010E94A351DC01CB019C8F8B8F0FC096
:104A000080E791E09E8F8D8F8D8D9E8D0197F1F7C0
:104A10009E8F8D8F8B8D9C8D01979C8F8B8F8B8D17
:104A20009C8D892B69F714C06F89788D898D9A8D3B
:104A30000E94A351DC01CB019C8F8B8F8B8D9C8DB1
:104A400098A38F8F8F8D98A10197F1F798A38F8FDF
:104A500081E00E940F388093220B0E944B4640E673
:104A600052E062E081E00E94D8478091220B882FBB
:104A700090E023E030E0AC0165E082E00E94024873
:104A800080E090E0AAE7B4E489879A87AB87BC8787
:104A900026E636E646E655E469857A858B859C856B
:104AA0000E948952DC01CB018D879E87AF87B88B2E
:104AB00020E030E040E85FE36D857E858F85988952
:104AC0000E94255188232CF481E090E09A8B898BF9
:104AD0003FC020E03FEF4FE757E46D857E858F852F
:104AE00098890E94845218164CF520E030E040E28C
:104AF00051E469857A858B859C850E948952DC0109
:104B0000CB01BC01CD010E94A351DC01CB019A8BEA
:104B1000898B0FC080E791E09C8B8B8B8B899C8964
:104B20000197F1F79C8B8B8B89899A8901979A8BD6
:104B3000898B89899A89892B69F714C06D857E854F
:104B40008F8598890E94A351DC01CB019A8B898BB8
:104B500089899A899E8B8D8B8D899E890197F1F722
:104B60009E8B8D8B0E944B460000AA960FB6F89440
:104B7000DEBF0FBECDBFDF91CF910895CF93DF93FE
:104B8000CDB7DEB72C970FB6F894DEBF0FBECDBF02
:104B900098878F837A8769875C874B878C858F930B
:104BA0008B858F938A858F9389858F9388858F9343
:104BB0008F818F938DE692E0892F8F938DE692E01F
:104BC0008F93CE0101969F938F930E9435558DB799
:104BD0009EB70A960FB6F894DEBF0FBECDBFCE01CA
:104BE00001960E94E84C00002C960FB6F894DEBFA8
:104BF0000FBECDBFDF91CF910895CF93DF93CDB797
:104C0000DEB76E970FB6F894DEBF0FBECDBF0E9421
:104C10005E508093AE028091AE02082E000C990B7C
:104C2000805691099A8389830E944B468091AE02F7
:104C3000482F62E082E00E9456468981482F65E055
:104C400082E00E94564689819A8142970CF0F5C015
:104C500089819A8199230CF4F0C045E050E065E029
:104C600070E081E090E00E94BE250E94563880E00E
:104C700090E0AAE7B4E48B839C83AD83BE8326E6F1
:104C800036E646E655E46B817C818D819E810E94EB
:104C90008952DC01CB018D8B9E8BAF8BB88F20E0CE
:104CA00030E040E85FE36D897E898F89988D0E94AE
:104CB000255188232CF481E090E09A8F898F3FC0A2
:104CC00020E03FEF4FE757E46D897E898F89988D0B
:104CD0000E94845218164CF520E030E040E251E486
:104CE0006B817C818D819E810E948952DC01CB0188
:104CF000BC01CD010E94A351DC01CB019A8F898FA9
:104D00000FC080E791E09C8F8B8F8B8D9C8D0197DE
:104D1000F1F79C8F8B8F898D9A8D01979A8F898F50
:104D2000898D9A8D892B69F714C06D897E898F8949
:104D3000988D0E94A351DC01CB019A8F898F898DB8
:104D40009A8D9E8F8D8F8D8D9E8D0197F1F79E8F01
:104D50008D8F0E94673880E090E0AAE7B4E48F83EB
:104D60009887A987BA8726E636E646E655E46F8136
:104D7000788589859A850E948952DC01CB018B87D1
:104D80009C87AD87BE8720E030E040E85FE36B851D
:104D90007C858D859E850E94255188232CF481E099
:104DA00090E0988B8F873FC020E03FEF4FE757E4BC
:104DB0006B857C858D859E850E94845218164CF5E6
:104DC00020E030E040E251E46F81788589859A8562
:104DD0000E948952DC01CB01BC01CD010E94A3518C
:104DE000DC01CB01988B8F870FC080E791E09A8B15
:104DF000898B89899A890197F1F79A8B898B8F859D
:104E000098890197988B8F878F859889892B69F767
:104E100014C06B857C858D859E850E94A351DC0125
:104E2000CB01988B8F878F8598899C8B8B8B8B89F7
:104E30009C890197F1F79C8B8B8B0E94614D000040
:104E40006E960FB6F894DEBF0FBECDBFDF91CF9147
:104E50000895CF93DF93CDB7DEB72A970FB6F894B6
:104E6000DEBF0FBECDBF9A87898768EC88EC0E94B1
:104E7000DA4A84E190E00E940C4F82E390E00E94C5
:104E8000344F19821A821B821C821D821E821F824D
:104E9000188683E00E940F3880931E0B82E00E94E8
:104EA0000F388093A31081E00E940F388093220B6B
:104EB00089859A854497092E000CAA0BBB0BBC016F
:104EC000CD010E94D451DC01CB0125EE30ED4AEA40
:104ED00050E4BC01CD010E942A51DC01CB01898341
:104EE0009A83AB83BC8369817A818B819C810E9488
:104EF000A351DC01CB018D839E83AF83B8871092D1
:104F0000D8091092D9091092DA091092DB0910928F
:104F10009F101092A0101092A1101092A2108091D8
:104F2000A3108A3130F58091220B8A3110F520913F
:104F3000D8093091D9094091DA095091DB098D8166
:104F40009E81AF81B885281739074A075B0788F427
:104F500020919F103091A0104091A1105091A2106B
:104F60008D819E81AF81B885281739074A075B0775
:104F700060F00E94594A60E080E00E94DA4A000036
:104F8000809100028E3641F403C00E94BD4981CF5A
:104F900087E78093000213C080910002873721F4D5
:104FA00083E7809300020BC080910002833721F4D5
:104FB00085E68093000203C08EE680930002000025
:104FC0002A960FB6F894DEBF0FBECDBFDF91CF910A
:104FD0000895CF93DF93CDB7DEB72A970FB6F89435
:104FE000DEBF0FBECDBF9A87898768EC88EC0E9430
:104FF000DA4A84E190E00E940C4F82E390E00E9444
:105000004C4F19821A821B821C821D821E821F82B3
:10501000188683E00E940F3880931E0B82E00E9466
:105020000F388093A31081E00E940F388093220BE9
:1050300089859A854497092E000CAA0BBB0BBC01ED
:10504000CD010E94D451DC01CB0125EE30ED4AEABE
:1050500050E4BC01CD010E942A51DC01CB018983BF
:105060009A83AB83BC8369817A818B819C810E9406
:10507000A351DC01CB018D839E83AF83B88710924F
:10508000D8091092D9091092DA091092DB0910920E
:105090009F101092A0101092A1101092A210809157
:1050A000A3108A3130F580911E0B8A3110F52091C2
:1050B000D8093091D9094091DA095091DB098D81E5
:1050C0009E81AF81B885281739074A075B0788F4A6
:1050D00020919F103091A0104091A1105091A210EA
:1050E0008D819E81AF81B885281739074A075B07F4
:1050F00060F00E94594A60E080E00E94DA4A0000B5
:10510000809100028E3641F403C00E94D74981CFBE
:1051100085E68093000213C080910002853621F459
:1051200083E7809300020BC080910002833721F453
:1051300087E78093000203C08EE6809300020000A0
:105140002A960FB6F894DEBF0FBECDBFDF91CF9188
:105150000895CF93DF93CDB7DEB728970FB6F894B5
:10516000DEBF0FBECDBF68EC88EC0E94DA4A84E156
:1051700090E00E940C4F80EA90E00E94344F198228
:105180001A821B821C821D821E821F82188683E067
:105190000E940F3880931E0B82E00E940F3880938C
:1051A000A31081E00E940F388093220B8EE69EEDC3
:1051B000A5E1B1E489839A83AB83BC8369817A8159
:1051C0008B819C810E94A351DC01CB018D839E8346
:1051D000AF83B8871092D8091092D9091092DA09D2
:1051E0001092DB0910929F101092A0101092A11043
:1051F0001092A2108091A3108A3130F58091220B79
:105200008A3110F52091D8093091D9094091DA09F5
:105210005091DB098D819E81AF81B88528173907B0
:105220004A075B0788F420919F103091A0104091AD
:10523000A1105091A2108D819E81AF81B885281751
:1052400039074A075B0760F00E94594A60E080E036
:105250000E94DA4A0000809100028E3641F403C0B9
:105260000E94BD4994CF83E78093000213C08091D0
:105270000002853621F487E7809300020BC08091FD
:105280000002833721F48EE68093000203C085E696
:1052900080930002000028960FB6F894DEBF0FBE80
:1052A000CDBFDF91CF910895EF92FF920F931F939F
:1052B000CF93DF93CDB7DEB7C854D1090FB6F894BA
:1052C000DEBF0FBECDBF9E01295B3F4FF901918329
:1052D00080839E012D5B3F4FCE01895B9F4FFC0178
:1052E0004081518164E1649FC001659F900D11244C
:1052F0008251964FFC0180819181A281B381F90195
:1053000080839183A283B383CE018D5B9F4FFC0189
:10531000808191819CAF8BAF8091C0049091C1043A
:105320009EAF8DAF2091BE043091BF048BAD9CAD7C
:105330002817390779F42DAD3EAD8091C0049091C6
:10534000C104A901481B590BCA01019619F48EE644
:10535000898347C02091BE043091BF048BAD9CADC2
:105360002817390779F42DAD3EAD8091C004909196
:10537000C104F901E81BF90BCF01019719F483E788
:1053800089832FC02091C0043091C1048DAD9EADA2
:105390002817390779F42BAD3CAD8091BE0490916C
:1053A000BF04A901481B590BCA01019619F485E6EF
:1053B000898317C02091C0043091C1048DAD9EAD8A
:1053C0002817390771F42BAD3CAD8091BE04909144
:1053D000BF04F901E81BF90BCF01019711F487E72E
:1053E00089832091BE043091BF04CE01CF96FC0189
:1053F00031832083CE018D5B9F4FFC01228133815D
:10540000CE01CF96FC01338322832091BE043091DC
:10541000BF04CE01CF96FC01808191812817390706
:1054200091F4CE01CF96FC01228133818091C0049A
:105430009091C104A901481B590BCA01019619F4A6
:105440008EE68A8359C02091BE043091BF04CE01FC
:10545000CF96FC01808191812817390791F4CE0104
:10546000CF96FC01228133818091C0049091C104C8
:10547000A901481B590BCA01019719F483E78A83D4
:105480003BC02091C0043091C104CE01CF96FC01F5
:10549000828193812817390791F4CE01CF96FC01C0
:1054A000208131818091BE049091BF04A901481BE5
:1054B000590BCA01019619F485E68A831DC0209113
:1054C000C0043091C104CE01CF96FC01828193814A
:1054D0002817390789F4CE01CF96FC01208131814C
:1054E0008091BE049091BF04A901481B590BCA01C9
:1054F000019711F487E78A839091000289819817B8
:1055000009F46EC0909100028A81981709F468C06E
:10551000809100028E36B9F48A81873719F089812B
:10552000873729F48AE590E00E94292759C08A81AB
:10553000853621F08981853609F052C08AE590E0F0
:105540000E94E9274DC0809100028536B1F48A811E
:105550008E3619F089818E3629F48AE590E00E9412
:1055600029273EC08A81833719F089818337C1F5A5
:105570008AE590E00E94E92733C0809100028737D6
:10558000B1F48A81833719F08981833729F48AE558
:1055900090E00E94292724C08A818E3619F08981E3
:1055A0008E36F1F48AE590E00E94E92719C08091D7
:1055B00000028337A9F48A81873719F089818737F8
:1055C00029F48AE590E00E9429270AC08A8185365D
:1055D00019F08981853621F48AE590E00E94E92757
:1055E000909100028981981709F039C12DAD3EAD27
:1055F0004BAD5CADC901880F991F880F991F880FAB
:10560000991F820F931F840F951F880F991F845E27
:105610009B4FFC01808191810196C9F40DAD1EADB7
:10562000EBACFCAC0E94F6039C01C801880F991FEB
:10563000880F991F880F991F800F911F8E0D9F1D36
:10564000880F991F845E9B4FFC01318320832DAD11
:105650003EAD4BAD5CADC901880F991F880F991FF6
:10566000880F991F820F931F840F951F880F991F12
:10567000845E9B4FFC0180819181019709F03AC2C1
:1056800081E00E943B2280E090E0A8ECB2E48F83AE
:105690009887A987BA8726E636E646E655E46F81FD
:1056A000788589859A850E948952DC01CB018D8F8E
:1056B0009E8FAF8FB8A320E030E040E85FE36D8DB0
:1056C0007E8D8F8D98A10E94255188232CF481E036
:1056D00090E09AA389A33FC020E03FEF4FE757E453
:1056E0006D8D7E8D8F8D98A10E94845218164CF579
:1056F00020E030E040E251E46F81788589859A8529
:105700000E948952DC01CB01BC01CD010E94A35152
:10571000DC01CB019AA389A30FC080E791E09CA391
:105720008BA38BA19CA10197F1F79CA38BA389A1CB
:105730009AA101979AA389A389A19AA1892B69F7B4
:1057400014C06D8D7E8D8F8D98A10E94A351DC01B8
:10575000CB019AA389A389A19AA19EA38DA38DA110
:105760009EA10197F1F79EA38DA30E94490581E0B8
:105770000E943B2280E090E0A8ECB2E48F87988BF7
:10578000A98BBA8B26E636E646E655E46F8578891E
:1057900089899A890E948952DC01CB018B8B9C8B71
:1057A000AD8BBE8B20E030E040E85FE36B897C8905
:1057B0008D899E890E94255188232CF481E090E0F8
:1057C000988F8F8B3FC020E03FEF4FE757E46B8906
:1057D0007C898D899E890E94845218164CF520E0A0
:1057E00030E040E251E46F85788989899A890E9486
:1057F0008952DC01CB01BC01CD010E94A351DC0127
:10580000CB01988F8F8B0FC080E791E09A8F898FA3
:10581000898D9A8D0197F1F79A8F898F8F89988D4D
:105820000197988F8F8B8F89988D892B69F714C07A
:105830006B897C898D899E890E94A351DC01CB01F3
:10584000988F8F8B8F89988D9C8F8B8F8B8D9C8D54
:105850000197F1F79C8F8B8F81E090E04DC1CE01D5
:10586000CF96FC0122813381CE01CF96FC0140818D
:105870005181C901880F991F880F991F880F991F9F
:10588000820F931F840F951F880F991F845E9B4F73
:10589000FC01808191810196F9F4CE01CF96FC0143
:1058A00002811381CE01CF96FC01E080F1800E943D
:1058B000F6039C01C801880F991F880F991F880F54
:1058C000991F800F911F8E0D9F1D880F991F845E59
:1058D0009B4FFC0131832083CE01CF96FC012281B6
:1058E0003381CE01CF96FC0140815181C901880FDF
:1058F000991F880F991F880F991F820F931F840F7C
:10590000951F880F991F845E9B4FFC0180819181B8
:10591000019709F0EFC081E00E943B2280E090E017
:10592000A8ECB2E48B879C87AD87BE8726E636E677
:1059300046E655E46B857C858D859E850E9489525F
:10594000DC01CB0189AB9AABABABBCAB20E030E068
:1059500040E85FE369A97AA98BA99CA90E94255117
:1059600088232CF481E090E09EAB8DAB3FC020E01B
:105970003FEF4FE757E469A97AA98BA99CA90E9438
:10598000845218164CF520E030E040E251E46B857B
:105990007C858D859E850E948952DC01CB01BC01EE
:1059A000CD010E94A351DC01CB019EAB8DAB0FC09A
:1059B00080E791E098AF8FAB8FA998AD0197F1F791
:1059C00098AF8FAB8DA99EA901979EAB8DAB8DA98A
:1059D0009EA9892B69F714C069A97AA98BA99CA9EA
:1059E0000E94A351DC01CB019EAB8DAB8DA99EA97A
:1059F0009AAF89AF89AD9AAD0197F1F79AAF89AFA8
:105A00000E94490581E00E943B2280E090E0A8ECE2
:105A1000B2E48B839C83AD83BE8326E636E646E6FE
:105A200055E46B817C818D819E810E948952DC01CD
:105A3000CB018FA398A7A9A7BAA720E030E040E840
:105A40005FE36FA178A589A59AA50E9425518823B7
:105A50002CF481E090E09CA78BA73FC020E03FEFB3
:105A60004FE757E46FA178A589A59AA50E948452B3
:105A700018164CF520E030E040E251E46B817C8167
:105A80008D819E810E948952DC01CB01BC01CD0138
:105A90000E94A351DC01CB019CA78BA70FC080E71C
:105AA00091E09EA78DA78DA59EA50197F1F79EA7D2
:105AB0008DA78BA59CA501979CA78BA78BA59CA5C3
:105AC000892B69F714C06FA178A589A59AA50E94B2
:105AD000A351DC01CB019CA78BA78BA59CA598AB00
